{
  "_format": "hh-sol-artifact-1",
  "contractName": "Registry",
  "sourceName": "contracts/Registry.sol",
  "abi": [
    {
      "inputs": [
        {
          "internalType": "uint256",
          "name": "size",
          "type": "uint256"
        }
      ],
      "name": "GrantSize",
      "type": "error"
    },
    {
      "inputs": [
        {
          "internalType": "string",
          "name": "titleNo",
          "type": "string"
        }
      ],
      "name": "LandAlreadyExists",
      "type": "error"
    },
    {
      "inputs": [
        {
          "internalType": "string",
          "name": "titleNo",
          "type": "string"
        }
      ],
      "name": "NoTokenizedLand",
      "type": "error"
    },
    {
      "inputs": [
        {
          "internalType": "address",
          "name": "caller",
          "type": "address"
        }
      ],
      "name": "NotAuthorized",
      "type": "error"
    },
    {
      "inputs": [
        {
          "internalType": "string",
          "name": "titleNo",
          "type": "string"
        },
        {
          "internalType": "uint256",
          "name": "size",
          "type": "uint256"
        }
      ],
      "name": "UnavailableLandSpace",
      "type": "error"
    },
    {
      "anonymous": false,
      "inputs": [
        {
          "indexed": false,
          "internalType": "string",
          "name": "titleNo",
          "type": "string"
        },
        {
          "indexed": false,
          "internalType": "uint256",
          "name": "size",
          "type": "uint256"
        },
        {
          "indexed": false,
          "internalType": "uint256",
          "name": "duration",
          "type": "uint256"
        },
        {
          "indexed": false,
          "internalType": "address",
          "name": "tenant",
          "type": "address"
        }
      ],
      "name": "GrantLandUsageRights",
      "type": "event"
    },
    {
      "anonymous": false,
      "inputs": [
        {
          "indexed": false,
          "internalType": "string",
          "name": "titleNo",
          "type": "string"
        },
        {
          "indexed": false,
          "internalType": "uint256",
          "name": "size",
          "type": "uint256"
        }
      ],
      "name": "LandCreated",
      "type": "event"
    },
    {
      "anonymous": false,
      "inputs": [
        {
          "indexed": false,
          "internalType": "uint256",
          "name": "size",
          "type": "uint256"
        },
        {
          "indexed": false,
          "internalType": "address",
          "name": "tenant",
          "type": "address"
        },
        {
          "indexed": false,
          "internalType": "string",
          "name": "titleNo",
          "type": "string"
        }
      ],
      "name": "ReclaimUsageRights",
      "type": "event"
    },
    {
      "inputs": [],
      "name": "countTokenizedLands",
      "outputs": [
        {
          "internalType": "uint256",
          "name": "",
          "type": "uint256"
        }
      ],
      "stateMutability": "view",
      "type": "function"
    },
    {
      "inputs": [
        {
          "internalType": "string",
          "name": "titleNo_",
          "type": "string"
        }
      ],
      "name": "getLandERC721Contract",
      "outputs": [
        {
          "internalType": "address",
          "name": "",
          "type": "address"
        }
      ],
      "stateMutability": "view",
      "type": "function"
    },
    {
      "inputs": [
        {
          "internalType": "string",
          "name": "titleNo_",
          "type": "string"
        },
        {
          "internalType": "string",
          "name": "symbol_",
          "type": "string"
        },
        {
          "internalType": "address",
          "name": "owner_",
          "type": "address"
        },
        {
          "internalType": "uint256",
          "name": "size_",
          "type": "uint256"
        }
      ],
      "name": "register",
      "outputs": [
        {
          "internalType": "contract Land",
          "name": "landAddress",
          "type": "address"
        }
      ],
      "stateMutability": "nonpayable",
      "type": "function"
    }
  ],
  "bytecode": "0x6080604052348015600f57600080fd5b50613ede8061001f6000396000f3fe608060405234801561001057600080fd5b50600436106100415760003560e01c8063c1e1bd6c14610046578063c8d8db2f14610076578063fbb4f08a14610094575b600080fd5b610060600480360381019061005b919061042c565b6100c4565b60405161006d91906104b6565b60405180910390f35b61007e61010b565b60405161008b91906104ea565b60405180910390f35b6100ae60048036038101906100a9919061055d565b610115565b6040516100bb919061065b565b60405180910390f35b600080826040516100d591906106e7565b908152602001604051809103902060009054906101000a900473ffffffffffffffffffffffffffffffffffffffff169050919050565b6000600254905090565b60008073ffffffffffffffffffffffffffffffffffffffff1660008660405161013e91906106e7565b908152602001604051809103902060009054906101000a900473ffffffffffffffffffffffffffffffffffffffff1673ffffffffffffffffffffffffffffffffffffffff161485906101c6576040517faab2392e0000000000000000000000000000000000000000000000000000000081526004016101bd9190610748565b60405180910390fd5b506001600260008282546101da9190610799565b925050819055506000858585856002546040516101f6906102c5565b6102049594939291906107cd565b604051809103906000f080158015610220573d6000803e3d6000fd5b5090508060008760405161023491906106e7565b908152602001604051809103902060006101000a81548173ffffffffffffffffffffffffffffffffffffffff021916908373ffffffffffffffffffffffffffffffffffffffff1602179055507f1b57452d2e78a54b5b362116106320dbd010e047ada9f1f0c105996c8988397486846040516102b192919061082e565b60405180910390a180915050949350505050565b61364a8061085f83390190565b6000604051905090565b600080fd5b600080fd5b600080fd5b600080fd5b6000601f19601f8301169050919050565b7f4e487b7100000000000000000000000000000000000000000000000000000000600052604160045260246000fd5b610339826102f0565b810181811067ffffffffffffffff8211171561035857610357610301565b5b80604052505050565b600061036b6102d2565b90506103778282610330565b919050565b600067ffffffffffffffff82111561039757610396610301565b5b6103a0826102f0565b9050602081019050919050565b82818337600083830152505050565b60006103cf6103ca8461037c565b610361565b9050828152602081018484840111156103eb576103ea6102eb565b5b6103f68482856103ad565b509392505050565b600082601f830112610413576104126102e6565b5b81356104238482602086016103bc565b91505092915050565b600060208284031215610442576104416102dc565b5b600082013567ffffffffffffffff8111156104605761045f6102e1565b5b61046c848285016103fe565b91505092915050565b600073ffffffffffffffffffffffffffffffffffffffff82169050919050565b60006104a082610475565b9050919050565b6104b081610495565b82525050565b60006020820190506104cb60008301846104a7565b92915050565b6000819050919050565b6104e4816104d1565b82525050565b60006020820190506104ff60008301846104db565b92915050565b61050e81610495565b811461051957600080fd5b50565b60008135905061052b81610505565b92915050565b61053a816104d1565b811461054557600080fd5b50565b60008135905061055781610531565b92915050565b60008060008060808587031215610577576105766102dc565b5b600085013567ffffffffffffffff811115610595576105946102e1565b5b6105a1878288016103fe565b945050602085013567ffffffffffffffff8111156105c2576105c16102e1565b5b6105ce878288016103fe565b93505060406105df8782880161051c565b92505060606105f087828801610548565b91505092959194509250565b6000819050919050565b600061062161061c61061784610475565b6105fc565b610475565b9050919050565b600061063382610606565b9050919050565b600061064582610628565b9050919050565b6106558161063a565b82525050565b6000602082019050610670600083018461064c565b92915050565b600081519050919050565b600081905092915050565b60005b838110156106aa57808201518184015260208101905061068f565b60008484015250505050565b60006106c182610676565b6106cb8185610681565b93506106db81856020860161068c565b80840191505092915050565b60006106f382846106b6565b915081905092915050565b600082825260208201905092915050565b600061071a82610676565b61072481856106fe565b935061073481856020860161068c565b61073d816102f0565b840191505092915050565b60006020820190508181036000830152610762818461070f565b905092915050565b7f4e487b7100000000000000000000000000000000000000000000000000000000600052601160045260246000fd5b60006107a4826104d1565b91506107af836104d1565b92508282019050808211156107c7576107c661076a565b5b92915050565b600060a08201905081810360008301526107e7818861070f565b905081810360208301526107fb818761070f565b905061080a60408301866104a7565b61081760608301856104db565b61082460808301846104db565b9695505050505050565b60006040820190508181036000830152610848818561070f565b905061085760208301846104db565b939250505056fe608060405234801561001057600080fd5b5060405161364a38038061364a83398181016040528101906100329190610ecb565b82858581600090816100449190611195565b5080600190816100549190611195565b505050600073ffffffffffffffffffffffffffffffffffffffff168173ffffffffffffffffffffffffffffffffffffffff16036100c95760006040517f1e4fbdf70000000000000000000000000000000000000000000000000000000081526004016100c09190611276565b60405180910390fd5b6100d8816101bc60201b60201c565b506040518060a001604052808681526020018381526020018581526020018473ffffffffffffffffffffffffffffffffffffffff168152602001828152506007600082015181600001908161012d9190611195565b5060208201518160010155604082015181600201908161014d9190611195565b5060608201518160030160006101000a81548173ffffffffffffffffffffffffffffffffffffffff021916908373ffffffffffffffffffffffffffffffffffffffff160217905550608082015181600401559050506101b2838261028260201b60201c565b505050505061140a565b6000600660009054906101000a900473ffffffffffffffffffffffffffffffffffffffff16905081600660006101000a81548173ffffffffffffffffffffffffffffffffffffffff021916908373ffffffffffffffffffffffffffffffffffffffff1602179055508173ffffffffffffffffffffffffffffffffffffffff168173ffffffffffffffffffffffffffffffffffffffff167f8be0079c531659141344cd1fd0a4f28419497f9722a3daafe3b4186f6b6457e060405160405180910390a35050565b6102a28282604051806020016040528060008152506102a660201b60201c565b5050565b6102b683836102ce60201b60201c565b6102c960008484846103cd60201b60201c565b505050565b600073ffffffffffffffffffffffffffffffffffffffff168273ffffffffffffffffffffffffffffffffffffffff16036103405760006040517f64a0ae920000000000000000000000000000000000000000000000000000000081526004016103379190611276565b60405180910390fd5b60006103548383600061058a60201b60201c565b9050600073ffffffffffffffffffffffffffffffffffffffff168173ffffffffffffffffffffffffffffffffffffffff16146103c85760006040517f73c6ac6e0000000000000000000000000000000000000000000000000000000081526004016103bf9190611276565b60405180910390fd5b505050565b60008373ffffffffffffffffffffffffffffffffffffffff163b1115610584578273ffffffffffffffffffffffffffffffffffffffff1663150b7a026104176107b660201b60201c565b8685856040518563ffffffff1660e01b815260040161043994939291906112f5565b6020604051808303816000875af192505050801561047557506040513d601f19601f820116820180604052508101906104729190611399565b60015b6104f9573d80600081146104a5576040519150601f19603f3d011682016040523d82523d6000602084013e6104aa565b606091505b5060008151036104f157836040517f64a0ae920000000000000000000000000000000000000000000000000000000081526004016104e89190611276565b60405180910390fd5b805181602001fd5b63150b7a0260e01b7bffffffffffffffffffffffffffffffffffffffffffffffffffffffff1916817bffffffffffffffffffffffffffffffffffffffffffffffffffffffff19161461058257836040517f64a0ae920000000000000000000000000000000000000000000000000000000081526004016105799190611276565b60405180910390fd5b505b50505050565b60008061059c846107be60201b60201c565b9050600073ffffffffffffffffffffffffffffffffffffffff168373ffffffffffffffffffffffffffffffffffffffff16146105e4576105e38184866107fb60201b60201c565b5b600073ffffffffffffffffffffffffffffffffffffffff168173ffffffffffffffffffffffffffffffffffffffff161461067b5761062c6000856000806108c560201b60201c565b6001600360008373ffffffffffffffffffffffffffffffffffffffff1673ffffffffffffffffffffffffffffffffffffffff168152602001908152602001600020600082825403925050819055505b600073ffffffffffffffffffffffffffffffffffffffff168573ffffffffffffffffffffffffffffffffffffffff16146106fe576001600360008773ffffffffffffffffffffffffffffffffffffffff1673ffffffffffffffffffffffffffffffffffffffff168152602001908152602001600020600082825401925050819055505b846002600086815260200190815260200160002060006101000a81548173ffffffffffffffffffffffffffffffffffffffff021916908373ffffffffffffffffffffffffffffffffffffffff160217905550838573ffffffffffffffffffffffffffffffffffffffff168273ffffffffffffffffffffffffffffffffffffffff167fddf252ad1be2c89b69c2b068fc378daa952ba7f163c4a11628f55a4df523b3ef60405160405180910390a4809150509392505050565b600033905090565b60006002600083815260200190815260200160002060009054906101000a900473ffffffffffffffffffffffffffffffffffffffff169050919050565b61080c838383610a9660201b60201c565b6108c057600073ffffffffffffffffffffffffffffffffffffffff168373ffffffffffffffffffffffffffffffffffffffff160361088157806040517f7e27328900000000000000000000000000000000000000000000000000000000815260040161087891906113c6565b60405180910390fd5b81816040517f177e802f0000000000000000000000000000000000000000000000000000000081526004016108b79291906113e1565b60405180910390fd5b505050565b80806108fe5750600073ffffffffffffffffffffffffffffffffffffffff168273ffffffffffffffffffffffffffffffffffffffff1614155b15610a3e57600061091484610b6360201b60201c565b9050600073ffffffffffffffffffffffffffffffffffffffff168373ffffffffffffffffffffffffffffffffffffffff161415801561097f57508273ffffffffffffffffffffffffffffffffffffffff168173ffffffffffffffffffffffffffffffffffffffff1614155b801561099857506109968184610bf160201b60201c565b155b156109da57826040517fa9fbf51f0000000000000000000000000000000000000000000000000000000081526004016109d19190611276565b60405180910390fd5b8115610a3c57838573ffffffffffffffffffffffffffffffffffffffff168273ffffffffffffffffffffffffffffffffffffffff167f8c5be1e5ebec7d5bd14f71427d1e84f3dd0314c0f7b2291e5b200ac8c7c3b92560405160405180910390a45b505b836004600085815260200190815260200160002060006101000a81548173ffffffffffffffffffffffffffffffffffffffff021916908373ffffffffffffffffffffffffffffffffffffffff16021790555050505050565b60008073ffffffffffffffffffffffffffffffffffffffff168373ffffffffffffffffffffffffffffffffffffffff1614158015610b5a57508273ffffffffffffffffffffffffffffffffffffffff168473ffffffffffffffffffffffffffffffffffffffff161480610b155750610b148484610bf160201b60201c565b5b80610b5957508273ffffffffffffffffffffffffffffffffffffffff16610b4183610c8560201b60201c565b73ffffffffffffffffffffffffffffffffffffffff16145b5b90509392505050565b600080610b75836107be60201b60201c565b9050600073ffffffffffffffffffffffffffffffffffffffff168173ffffffffffffffffffffffffffffffffffffffff1603610be857826040517f7e273289000000000000000000000000000000000000000000000000000000008152600401610bdf91906113c6565b60405180910390fd5b80915050919050565b6000600560008473ffffffffffffffffffffffffffffffffffffffff1673ffffffffffffffffffffffffffffffffffffffff16815260200190815260200160002060008373ffffffffffffffffffffffffffffffffffffffff1673ffffffffffffffffffffffffffffffffffffffff16815260200190815260200160002060009054906101000a900460ff16905092915050565b60006004600083815260200190815260200160002060009054906101000a900473ffffffffffffffffffffffffffffffffffffffff169050919050565b6000604051905090565b600080fd5b600080fd5b600080fd5b600080fd5b6000601f19601f8301169050919050565b7f4e487b7100000000000000000000000000000000000000000000000000000000600052604160045260246000fd5b610d2982610ce0565b810181811067ffffffffffffffff82111715610d4857610d47610cf1565b5b80604052505050565b6000610d5b610cc2565b9050610d678282610d20565b919050565b600067ffffffffffffffff821115610d8757610d86610cf1565b5b610d9082610ce0565b9050602081019050919050565b60005b83811015610dbb578082015181840152602081019050610da0565b60008484015250505050565b6000610dda610dd584610d6c565b610d51565b905082815260208101848484011115610df657610df5610cdb565b5b610e01848285610d9d565b509392505050565b600082601f830112610e1e57610e1d610cd6565b5b8151610e2e848260208601610dc7565b91505092915050565b600073ffffffffffffffffffffffffffffffffffffffff82169050919050565b6000610e6282610e37565b9050919050565b610e7281610e57565b8114610e7d57600080fd5b50565b600081519050610e8f81610e69565b92915050565b6000819050919050565b610ea881610e95565b8114610eb357600080fd5b50565b600081519050610ec581610e9f565b92915050565b600080600080600060a08688031215610ee757610ee6610ccc565b5b600086015167ffffffffffffffff811115610f0557610f04610cd1565b5b610f1188828901610e09565b955050602086015167ffffffffffffffff811115610f3257610f31610cd1565b5b610f3e88828901610e09565b9450506040610f4f88828901610e80565b9350506060610f6088828901610eb6565b9250506080610f7188828901610eb6565b9150509295509295909350565b600081519050919050565b7f4e487b7100000000000000000000000000000000000000000000000000000000600052602260045260246000fd5b60006002820490506001821680610fd057607f821691505b602082108103610fe357610fe2610f89565b5b50919050565b60008190508160005260206000209050919050565b60006020601f8301049050919050565b600082821b905092915050565b60006008830261104b7fffffffffffffffffffffffffffffffffffffffffffffffffffffffffffffffff8261100e565b611055868361100e565b95508019841693508086168417925050509392505050565b6000819050919050565b600061109261108d61108884610e95565b61106d565b610e95565b9050919050565b6000819050919050565b6110ac83611077565b6110c06110b882611099565b84845461101b565b825550505050565b600090565b6110d56110c8565b6110e08184846110a3565b505050565b5b81811015611104576110f96000826110cd565b6001810190506110e6565b5050565b601f8211156111495761111a81610fe9565b61112384610ffe565b81016020851015611132578190505b61114661113e85610ffe565b8301826110e5565b50505b505050565b600082821c905092915050565b600061116c6000198460080261114e565b1980831691505092915050565b6000611185838361115b565b9150826002028217905092915050565b61119e82610f7e565b67ffffffffffffffff8111156111b7576111b6610cf1565b5b6111c18254610fb8565b6111cc828285611108565b600060209050601f8311600181146111ff57600084156111ed578287015190505b6111f78582611179565b86555061125f565b601f19841661120d86610fe9565b60005b8281101561123557848901518255600182019150602085019450602081019050611210565b86831015611252578489015161124e601f89168261115b565b8355505b6001600288020188555050505b505050505050565b61127081610e57565b82525050565b600060208201905061128b6000830184611267565b92915050565b61129a81610e95565b82525050565b600081519050919050565b600082825260208201905092915050565b60006112c7826112a0565b6112d181856112ab565b93506112e1818560208601610d9d565b6112ea81610ce0565b840191505092915050565b600060808201905061130a6000830187611267565b6113176020830186611267565b6113246040830185611291565b818103606083015261133681846112bc565b905095945050505050565b60007fffffffff0000000000000000000000000000000000000000000000000000000082169050919050565b61137681611341565b811461138157600080fd5b50565b6000815190506113938161136d565b92915050565b6000602082840312156113af576113ae610ccc565b5b60006113bd84828501611384565b91505092915050565b60006020820190506113db6000830184611291565b92915050565b60006040820190506113f66000830185611267565b6114036020830184611291565b9392505050565b612231806114196000396000f3fe608060405234801561001057600080fd5b506004361061010b5760003560e01c806370a08231116100a2578063a22cb46511610071578063a22cb465146102a6578063b88d4fde146102c2578063c87b56dd146102de578063e985e9c51461030e578063f2fde38b1461033e5761010b565b806370a0823114610230578063715018a6146102605780638da5cb5b1461026a57806395d89b41146102885761010b565b806323b872dd116100de57806323b872dd146101aa57806342842e0e146101c65780635690314c146101e25780636352211e146102005761010b565b806301ffc9a71461011057806306fdde0314610140578063081812fc1461015e578063095ea7b31461018e575b600080fd5b61012a60048036038101906101259190611962565b61035a565b60405161013791906119aa565b60405180910390f35b61014861043c565b6040516101559190611a55565b60405180910390f35b61017860048036038101906101739190611aad565b6104ce565b6040516101859190611b1b565b60405180910390f35b6101a860048036038101906101a39190611b62565b6104ea565b005b6101c460048036038101906101bf9190611ba2565b610500565b005b6101e060048036038101906101db9190611ba2565b610602565b005b6101ea610622565b6040516101f79190611cec565b60405180910390f35b61021a60048036038101906102159190611aad565b6107ca565b6040516102279190611b1b565b60405180910390f35b61024a60048036038101906102459190611d0e565b6107dc565b6040516102579190611d4a565b60405180910390f35b610268610896565b005b6102726108aa565b60405161027f9190611b1b565b60405180910390f35b6102906108d4565b60405161029d9190611a55565b60405180910390f35b6102c060048036038101906102bb9190611d91565b610966565b005b6102dc60048036038101906102d79190611f06565b61097c565b005b6102f860048036038101906102f39190611aad565b610999565b6040516103059190611a55565b60405180910390f35b61032860048036038101906103239190611f89565b610a02565b60405161033591906119aa565b60405180910390f35b61035860048036038101906103539190611d0e565b610a96565b005b60007f80ac58cd000000000000000000000000000000000000000000000000000000007bffffffffffffffffffffffffffffffffffffffffffffffffffffffff1916827bffffffffffffffffffffffffffffffffffffffffffffffffffffffff1916148061042557507f5b5e139f000000000000000000000000000000000000000000000000000000007bffffffffffffffffffffffffffffffffffffffffffffffffffffffff1916827bffffffffffffffffffffffffffffffffffffffffffffffffffffffff1916145b80610435575061043482610b1c565b5b9050919050565b60606000805461044b90611ff8565b80601f016020809104026020016040519081016040528092919081815260200182805461047790611ff8565b80156104c45780601f10610499576101008083540402835291602001916104c4565b820191906000526020600020905b8154815290600101906020018083116104a757829003601f168201915b5050505050905090565b60006104d982610b86565b506104e382610c0e565b9050919050565b6104fc82826104f7610c4b565b610c53565b5050565b600073ffffffffffffffffffffffffffffffffffffffff168273ffffffffffffffffffffffffffffffffffffffff16036105725760006040517f64a0ae920000000000000000000000000000000000000000000000000000000081526004016105699190611b1b565b60405180910390fd5b60006105868383610581610c4b565b610c65565b90508373ffffffffffffffffffffffffffffffffffffffff168173ffffffffffffffffffffffffffffffffffffffff16146105fc578382826040517f64283d7b0000000000000000000000000000000000000000000000000000000081526004016105f393929190612029565b60405180910390fd5b50505050565b61061d8383836040518060200160405280600081525061097c565b505050565b61062a6118b1565b60076040518060a001604052908160008201805461064790611ff8565b80601f016020809104026020016040519081016040528092919081815260200182805461067390611ff8565b80156106c05780601f10610695576101008083540402835291602001916106c0565b820191906000526020600020905b8154815290600101906020018083116106a357829003601f168201915b50505050508152602001600182015481526020016002820180546106e390611ff8565b80601f016020809104026020016040519081016040528092919081815260200182805461070f90611ff8565b801561075c5780601f106107315761010080835404028352916020019161075c565b820191906000526020600020905b81548152906001019060200180831161073f57829003601f168201915b505050505081526020016003820160009054906101000a900473ffffffffffffffffffffffffffffffffffffffff1673ffffffffffffffffffffffffffffffffffffffff1673ffffffffffffffffffffffffffffffffffffffff168152602001600482015481525050905090565b60006107d582610b86565b9050919050565b60008073ffffffffffffffffffffffffffffffffffffffff168273ffffffffffffffffffffffffffffffffffffffff160361084f5760006040517f89c62b640000000000000000000000000000000000000000000000000000000081526004016108469190611b1b565b60405180910390fd5b600360008373ffffffffffffffffffffffffffffffffffffffff1673ffffffffffffffffffffffffffffffffffffffff168152602001908152602001600020549050919050565b61089e610e7f565b6108a86000610f06565b565b6000600660009054906101000a900473ffffffffffffffffffffffffffffffffffffffff16905090565b6060600180546108e390611ff8565b80601f016020809104026020016040519081016040528092919081815260200182805461090f90611ff8565b801561095c5780601f106109315761010080835404028352916020019161095c565b820191906000526020600020905b81548152906001019060200180831161093f57829003601f168201915b5050505050905090565b610978610971610c4b565b8383610fcc565b5050565b610987848484610500565b6109938484848461113b565b50505050565b60606109a482610b86565b5060006109af6112f2565b905060008151116109cf57604051806020016040528060008152506109fa565b806109d984611309565b6040516020016109ea92919061209c565b6040516020818303038152906040525b915050919050565b6000600560008473ffffffffffffffffffffffffffffffffffffffff1673ffffffffffffffffffffffffffffffffffffffff16815260200190815260200160002060008373ffffffffffffffffffffffffffffffffffffffff1673ffffffffffffffffffffffffffffffffffffffff16815260200190815260200160002060009054906101000a900460ff16905092915050565b610a9e610e7f565b600073ffffffffffffffffffffffffffffffffffffffff168173ffffffffffffffffffffffffffffffffffffffff1603610b105760006040517f1e4fbdf7000000000000000000000000000000000000000000000000000000008152600401610b079190611b1b565b60405180910390fd5b610b1981610f06565b50565b60007f01ffc9a7000000000000000000000000000000000000000000000000000000007bffffffffffffffffffffffffffffffffffffffffffffffffffffffff1916827bffffffffffffffffffffffffffffffffffffffffffffffffffffffff1916149050919050565b600080610b92836113d7565b9050600073ffffffffffffffffffffffffffffffffffffffff168173ffffffffffffffffffffffffffffffffffffffff1603610c0557826040517f7e273289000000000000000000000000000000000000000000000000000000008152600401610bfc9190611d4a565b60405180910390fd5b80915050919050565b60006004600083815260200190815260200160002060009054906101000a900473ffffffffffffffffffffffffffffffffffffffff169050919050565b600033905090565b610c608383836001611414565b505050565b600080610c71846113d7565b9050600073ffffffffffffffffffffffffffffffffffffffff168373ffffffffffffffffffffffffffffffffffffffff1614610cb357610cb28184866115d9565b5b600073ffffffffffffffffffffffffffffffffffffffff168173ffffffffffffffffffffffffffffffffffffffff1614610d4457610cf5600085600080611414565b6001600360008373ffffffffffffffffffffffffffffffffffffffff1673ffffffffffffffffffffffffffffffffffffffff168152602001908152602001600020600082825403925050819055505b600073ffffffffffffffffffffffffffffffffffffffff168573ffffffffffffffffffffffffffffffffffffffff1614610dc7576001600360008773ffffffffffffffffffffffffffffffffffffffff1673ffffffffffffffffffffffffffffffffffffffff168152602001908152602001600020600082825401925050819055505b846002600086815260200190815260200160002060006101000a81548173ffffffffffffffffffffffffffffffffffffffff021916908373ffffffffffffffffffffffffffffffffffffffff160217905550838573ffffffffffffffffffffffffffffffffffffffff168273ffffffffffffffffffffffffffffffffffffffff167fddf252ad1be2c89b69c2b068fc378daa952ba7f163c4a11628f55a4df523b3ef60405160405180910390a4809150509392505050565b610e87610c4b565b73ffffffffffffffffffffffffffffffffffffffff16610ea56108aa565b73ffffffffffffffffffffffffffffffffffffffff1614610f0457610ec8610c4b565b6040517f118cdaa7000000000000000000000000000000000000000000000000000000008152600401610efb9190611b1b565b60405180910390fd5b565b6000600660009054906101000a900473ffffffffffffffffffffffffffffffffffffffff16905081600660006101000a81548173ffffffffffffffffffffffffffffffffffffffff021916908373ffffffffffffffffffffffffffffffffffffffff1602179055508173ffffffffffffffffffffffffffffffffffffffff168173ffffffffffffffffffffffffffffffffffffffff167f8be0079c531659141344cd1fd0a4f28419497f9722a3daafe3b4186f6b6457e060405160405180910390a35050565b600073ffffffffffffffffffffffffffffffffffffffff168273ffffffffffffffffffffffffffffffffffffffff160361103d57816040517f5b08ba180000000000000000000000000000000000000000000000000000000081526004016110349190611b1b565b60405180910390fd5b80600560008573ffffffffffffffffffffffffffffffffffffffff1673ffffffffffffffffffffffffffffffffffffffff16815260200190815260200160002060008473ffffffffffffffffffffffffffffffffffffffff1673ffffffffffffffffffffffffffffffffffffffff16815260200190815260200160002060006101000a81548160ff0219169083151502179055508173ffffffffffffffffffffffffffffffffffffffff168373ffffffffffffffffffffffffffffffffffffffff167f17307eab39ab6107e8899845ad3d59bd9653f200f220920489ca2b5937696c318360405161112e91906119aa565b60405180910390a3505050565b60008373ffffffffffffffffffffffffffffffffffffffff163b11156112ec578273ffffffffffffffffffffffffffffffffffffffff1663150b7a0261117f610c4b565b8685856040518563ffffffff1660e01b81526004016111a19493929190612115565b6020604051808303816000875af19250505080156111dd57506040513d601f19601f820116820180604052508101906111da9190612176565b60015b611261573d806000811461120d576040519150601f19603f3d011682016040523d82523d6000602084013e611212565b606091505b50600081510361125957836040517f64a0ae920000000000000000000000000000000000000000000000000000000081526004016112509190611b1b565b60405180910390fd5b805181602001fd5b63150b7a0260e01b7bffffffffffffffffffffffffffffffffffffffffffffffffffffffff1916817bffffffffffffffffffffffffffffffffffffffffffffffffffffffff1916146112ea57836040517f64a0ae920000000000000000000000000000000000000000000000000000000081526004016112e19190611b1b565b60405180910390fd5b505b50505050565b606060405180602001604052806000815250905090565b6060600060016113188461169d565b01905060008167ffffffffffffffff81111561133757611336611ddb565b5b6040519080825280601f01601f1916602001820160405280156113695781602001600182028036833780820191505090505b509050600082602001820190505b6001156113cc578080600190039150507f3031323334353637383961626364656600000000000000000000000000000000600a86061a8153600a85816113c0576113bf6121a3565b5b04945060008503611377575b819350505050919050565b60006002600083815260200190815260200160002060009054906101000a900473ffffffffffffffffffffffffffffffffffffffff169050919050565b808061144d5750600073ffffffffffffffffffffffffffffffffffffffff168273ffffffffffffffffffffffffffffffffffffffff1614155b1561158157600061145d84610b86565b9050600073ffffffffffffffffffffffffffffffffffffffff168373ffffffffffffffffffffffffffffffffffffffff16141580156114c857508273ffffffffffffffffffffffffffffffffffffffff168173ffffffffffffffffffffffffffffffffffffffff1614155b80156114db57506114d98184610a02565b155b1561151d57826040517fa9fbf51f0000000000000000000000000000000000000000000000000000000081526004016115149190611b1b565b60405180910390fd5b811561157f57838573ffffffffffffffffffffffffffffffffffffffff168273ffffffffffffffffffffffffffffffffffffffff167f8c5be1e5ebec7d5bd14f71427d1e84f3dd0314c0f7b2291e5b200ac8c7c3b92560405160405180910390a45b505b836004600085815260200190815260200160002060006101000a81548173ffffffffffffffffffffffffffffffffffffffff021916908373ffffffffffffffffffffffffffffffffffffffff16021790555050505050565b6115e48383836117f0565b61169857600073ffffffffffffffffffffffffffffffffffffffff168373ffffffffffffffffffffffffffffffffffffffff160361165957806040517f7e2732890000000000000000000000000000000000000000000000000000000081526004016116509190611d4a565b60405180910390fd5b81816040517f177e802f00000000000000000000000000000000000000000000000000000000815260040161168f9291906121d2565b60405180910390fd5b505050565b600080600090507a184f03e93ff9f4daa797ed6e38ed64bf6a1f01000000000000000083106116fb577a184f03e93ff9f4daa797ed6e38ed64bf6a1f01000000000000000083816116f1576116f06121a3565b5b0492506040810190505b6d04ee2d6d415b85acef81000000008310611738576d04ee2d6d415b85acef8100000000838161172e5761172d6121a3565b5b0492506020810190505b662386f26fc10000831061176757662386f26fc10000838161175d5761175c6121a3565b5b0492506010810190505b6305f5e1008310611790576305f5e1008381611786576117856121a3565b5b0492506008810190505b61271083106117b55761271083816117ab576117aa6121a3565b5b0492506004810190505b606483106117d857606483816117ce576117cd6121a3565b5b0492506002810190505b600a83106117e7576001810190505b80915050919050565b60008073ffffffffffffffffffffffffffffffffffffffff168373ffffffffffffffffffffffffffffffffffffffff16141580156118a857508273ffffffffffffffffffffffffffffffffffffffff168473ffffffffffffffffffffffffffffffffffffffff16148061186957506118688484610a02565b5b806118a757508273ffffffffffffffffffffffffffffffffffffffff1661188f83610c0e565b73ffffffffffffffffffffffffffffffffffffffff16145b5b90509392505050565b6040518060a00160405280606081526020016000815260200160608152602001600073ffffffffffffffffffffffffffffffffffffffff168152602001600081525090565b6000604051905090565b600080fd5b600080fd5b60007fffffffff0000000000000000000000000000000000000000000000000000000082169050919050565b61193f8161190a565b811461194a57600080fd5b50565b60008135905061195c81611936565b92915050565b60006020828403121561197857611977611900565b5b60006119868482850161194d565b91505092915050565b60008115159050919050565b6119a48161198f565b82525050565b60006020820190506119bf600083018461199b565b92915050565b600081519050919050565b600082825260208201905092915050565b60005b838110156119ff5780820151818401526020810190506119e4565b60008484015250505050565b6000601f19601f8301169050919050565b6000611a27826119c5565b611a3181856119d0565b9350611a418185602086016119e1565b611a4a81611a0b565b840191505092915050565b60006020820190508181036000830152611a6f8184611a1c565b905092915050565b6000819050919050565b611a8a81611a77565b8114611a9557600080fd5b50565b600081359050611aa781611a81565b92915050565b600060208284031215611ac357611ac2611900565b5b6000611ad184828501611a98565b91505092915050565b600073ffffffffffffffffffffffffffffffffffffffff82169050919050565b6000611b0582611ada565b9050919050565b611b1581611afa565b82525050565b6000602082019050611b306000830184611b0c565b92915050565b611b3f81611afa565b8114611b4a57600080fd5b50565b600081359050611b5c81611b36565b92915050565b60008060408385031215611b7957611b78611900565b5b6000611b8785828601611b4d565b9250506020611b9885828601611a98565b9150509250929050565b600080600060608486031215611bbb57611bba611900565b5b6000611bc986828701611b4d565b9350506020611bda86828701611b4d565b9250506040611beb86828701611a98565b9150509250925092565b600082825260208201905092915050565b6000611c11826119c5565b611c1b8185611bf5565b9350611c2b8185602086016119e1565b611c3481611a0b565b840191505092915050565b611c4881611a77565b82525050565b6000611c5982611ada565b9050919050565b611c6981611c4e565b82525050565b600060a0830160008301518482036000860152611c8c8282611c06565b9150506020830151611ca16020860182611c3f565b5060408301518482036040860152611cb98282611c06565b9150506060830151611cce6060860182611c60565b506080830151611ce16080860182611c3f565b508091505092915050565b60006020820190508181036000830152611d068184611c6f565b905092915050565b600060208284031215611d2457611d23611900565b5b6000611d3284828501611b4d565b91505092915050565b611d4481611a77565b82525050565b6000602082019050611d5f6000830184611d3b565b92915050565b611d6e8161198f565b8114611d7957600080fd5b50565b600081359050611d8b81611d65565b92915050565b60008060408385031215611da857611da7611900565b5b6000611db685828601611b4d565b9250506020611dc785828601611d7c565b9150509250929050565b600080fd5b600080fd5b7f4e487b7100000000000000000000000000000000000000000000000000000000600052604160045260246000fd5b611e1382611a0b565b810181811067ffffffffffffffff82111715611e3257611e31611ddb565b5b80604052505050565b6000611e456118f6565b9050611e518282611e0a565b919050565b600067ffffffffffffffff821115611e7157611e70611ddb565b5b611e7a82611a0b565b9050602081019050919050565b82818337600083830152505050565b6000611ea9611ea484611e56565b611e3b565b905082815260208101848484011115611ec557611ec4611dd6565b5b611ed0848285611e87565b509392505050565b600082601f830112611eed57611eec611dd1565b5b8135611efd848260208601611e96565b91505092915050565b60008060008060808587031215611f2057611f1f611900565b5b6000611f2e87828801611b4d565b9450506020611f3f87828801611b4d565b9350506040611f5087828801611a98565b925050606085013567ffffffffffffffff811115611f7157611f70611905565b5b611f7d87828801611ed8565b91505092959194509250565b60008060408385031215611fa057611f9f611900565b5b6000611fae85828601611b4d565b9250506020611fbf85828601611b4d565b9150509250929050565b7f4e487b7100000000000000000000000000000000000000000000000000000000600052602260045260246000fd5b6000600282049050600182168061201057607f821691505b60208210810361202357612022611fc9565b5b50919050565b600060608201905061203e6000830186611b0c565b61204b6020830185611d3b565b6120586040830184611b0c565b949350505050565b600081905092915050565b6000612076826119c5565b6120808185612060565b93506120908185602086016119e1565b80840191505092915050565b60006120a8828561206b565b91506120b4828461206b565b91508190509392505050565b600081519050919050565b600082825260208201905092915050565b60006120e7826120c0565b6120f181856120cb565b93506121018185602086016119e1565b61210a81611a0b565b840191505092915050565b600060808201905061212a6000830187611b0c565b6121376020830186611b0c565b6121446040830185611d3b565b818103606083015261215681846120dc565b905095945050505050565b60008151905061217081611936565b92915050565b60006020828403121561218c5761218b611900565b5b600061219a84828501612161565b91505092915050565b7f4e487b7100000000000000000000000000000000000000000000000000000000600052601260045260246000fd5b60006040820190506121e76000830185611b0c565b6121f46020830184611d3b565b939250505056fea2646970667358221220728ea1f8d352862d169d47dc1ffdf22b7e8eb806bf8427edc8960af030d06c7964736f6c634300081b0033a2646970667358221220db89160048c17d19229eedbb4c128c860389ed8ea08b2f0be00946396f92c22964736f6c634300081b0033",
  "linkReferences": {},
  "deployedLinkReferences": {}
}